{
  "contractName": "SponsorWhitelistControl",
  "abi": [
    {
      "constant": true,
      "inputs": [
        {
          "internalType": "address",
          "name": "contractAddr",
          "type": "address"
        }
      ],
      "name": "getSponsorForGas",
      "outputs": [
        {
          "internalType": "address",
          "name": "",
          "type": "address"
        }
      ],
      "payable": false,
      "stateMutability": "view",
      "type": "function"
    },
    {
      "constant": true,
      "inputs": [
        {
          "internalType": "address",
          "name": "contractAddr",
          "type": "address"
        }
      ],
      "name": "getSponsoredBalanceForGas",
      "outputs": [
        {
          "internalType": "uint256",
          "name": "",
          "type": "uint256"
        }
      ],
      "payable": false,
      "stateMutability": "view",
      "type": "function"
    },
    {
      "constant": true,
      "inputs": [
        {
          "internalType": "address",
          "name": "contractAddr",
          "type": "address"
        }
      ],
      "name": "getSponsoredGasFeeUpperBound",
      "outputs": [
        {
          "internalType": "uint256",
          "name": "",
          "type": "uint256"
        }
      ],
      "payable": false,
      "stateMutability": "view",
      "type": "function"
    },
    {
      "constant": true,
      "inputs": [
        {
          "internalType": "address",
          "name": "contractAddr",
          "type": "address"
        }
      ],
      "name": "getSponsorForCollateral",
      "outputs": [
        {
          "internalType": "address",
          "name": "",
          "type": "address"
        }
      ],
      "payable": false,
      "stateMutability": "view",
      "type": "function"
    },
    {
      "constant": true,
      "inputs": [
        {
          "internalType": "address",
          "name": "contractAddr",
          "type": "address"
        }
      ],
      "name": "getSponsoredBalanceForCollateral",
      "outputs": [
        {
          "internalType": "uint256",
          "name": "",
          "type": "uint256"
        }
      ],
      "payable": false,
      "stateMutability": "view",
      "type": "function"
    },
    {
      "constant": true,
      "inputs": [
        {
          "internalType": "address",
          "name": "contractAddr",
          "type": "address"
        },
        {
          "internalType": "address",
          "name": "user",
          "type": "address"
        }
      ],
      "name": "isWhitelisted",
      "outputs": [
        {
          "internalType": "bool",
          "name": "",
          "type": "bool"
        }
      ],
      "payable": false,
      "stateMutability": "view",
      "type": "function"
    },
    {
      "constant": true,
      "inputs": [
        {
          "internalType": "address",
          "name": "contractAddr",
          "type": "address"
        }
      ],
      "name": "isAllWhitelisted",
      "outputs": [
        {
          "internalType": "bool",
          "name": "",
          "type": "bool"
        }
      ],
      "payable": false,
      "stateMutability": "view",
      "type": "function"
    },
    {
      "constant": false,
      "inputs": [
        {
          "internalType": "address",
          "name": "contractAddr",
          "type": "address"
        },
        {
          "internalType": "address[]",
          "name": "addresses",
          "type": "address[]"
        }
      ],
      "name": "addPrivilegeByAdmin",
      "outputs": [],
      "payable": false,
      "stateMutability": "nonpayable",
      "type": "function"
    },
    {
      "constant": false,
      "inputs": [
        {
          "internalType": "address",
          "name": "contractAddr",
          "type": "address"
        },
        {
          "internalType": "address[]",
          "name": "addresses",
          "type": "address[]"
        }
      ],
      "name": "removePrivilegeByAdmin",
      "outputs": [],
      "payable": false,
      "stateMutability": "nonpayable",
      "type": "function"
    },
    {
      "constant": false,
      "inputs": [
        {
          "internalType": "address",
          "name": "contractAddr",
          "type": "address"
        },
        {
          "internalType": "uint256",
          "name": "upperBound",
          "type": "uint256"
        }
      ],
      "name": "setSponsorForGas",
      "outputs": [],
      "payable": true,
      "stateMutability": "payable",
      "type": "function"
    },
    {
      "constant": false,
      "inputs": [
        {
          "internalType": "address",
          "name": "contractAddr",
          "type": "address"
        }
      ],
      "name": "setSponsorForCollateral",
      "outputs": [],
      "payable": true,
      "stateMutability": "payable",
      "type": "function"
    },
    {
      "constant": false,
      "inputs": [
        {
          "internalType": "address[]",
          "name": "",
          "type": "address[]"
        }
      ],
      "name": "addPrivilege",
      "outputs": [],
      "payable": false,
      "stateMutability": "nonpayable",
      "type": "function"
    },
    {
      "constant": false,
      "inputs": [
        {
          "internalType": "address[]",
          "name": "",
          "type": "address[]"
        }
      ],
      "name": "removePrivilege",
      "outputs": [],
      "payable": false,
      "stateMutability": "nonpayable",
      "type": "function"
    }
  ],
  "bytecode": "0x608060405234801561001057600080fd5b506103d7806100206000396000f3fe6080604052600436106100d25760003560e01c80638382c3a71161007f578063d2932db611610059578063d2932db6146100d7578063d47e9a57146102fb578063d665f9dd146102fb578063e66c1bea1461036b576100d2565b80638382c3a714610249578063b3b28fac146102fb578063b6b3527214610330576100d2565b806333a1af31116100b057806333a1af31146102495780633e3e64281461029857806379b47faa146102c4576100d2565b806310128d3e146100d7578063217e055b1461018957806322effe8414610189575b600080fd5b3480156100e357600080fd5b50610187600480360360208110156100fa57600080fd5b81019060208101813564010000000081111561011557600080fd5b82018360208201111561012757600080fd5b8035906020019184602083028401116401000000008311171561014957600080fd5b91908080602002602001604051908101604052809392919081815260200183836020028082843760009201919091525092955061038d945050505050565b005b34801561019557600080fd5b50610187600480360360408110156101ac57600080fd5b6001600160a01b0382351691908101906040810160208201356401000000008111156101d757600080fd5b8201836020820111156101e957600080fd5b8035906020019184602083028401116401000000008311171561020b57600080fd5b919080806020026020016040519081016040528093929190818152602001838360200280828437600092019190915250929550610390945050505050565b34801561025557600080fd5b5061027c6004803603602081101561026c57600080fd5b50356001600160a01b0316610394565b604080516001600160a01b039092168252519081900360200190f35b610187600480360360408110156102ae57600080fd5b506001600160a01b038135169060200135610390565b3480156102d057600080fd5b506102e76004803603602081101561026c57600080fd5b604080519115158252519081900360200190f35b34801561030757600080fd5b5061031e6004803603602081101561026c57600080fd5b60408051918252519081900360200190f35b34801561033c57600080fd5b506102e76004803603604081101561035357600080fd5b506001600160a01b038135811691602001351661039a565b6101876004803603602081101561038157600080fd5b50356001600160a01b03165b50565b5050565b50600090565b60009291505056fea265627a7a72315820774d30530d6a68d5f34e86874a6c694284605907a22e94967d4f653485ad239e64736f6c634300050b0032",
  "source": "pragma solidity >=0.4.15;\n\ncontract SponsorWhitelistControl {\n    /*** Query Functions ***/\n    /**\n     * @dev get gas sponsor address of specific contract\n     * @param contractAddr The address of the sponsored contract\n     */\n    function getSponsorForGas(address contractAddr)\n        public\n        view\n        returns (address)\n    {}\n\n    /**\n     * @dev get current Sponsored Balance for gas\n     * @param contractAddr The address of the sponsored contract\n     */\n    function getSponsoredBalanceForGas(address contractAddr)\n        public\n        view\n        returns (uint256)\n    {}\n\n    /**\n     * @dev get current Sponsored Gas fee upper bound\n     * @param contractAddr The address of the sponsored contract\n     */\n    function getSponsoredGasFeeUpperBound(address contractAddr)\n        public\n        view\n        returns (uint256)\n    {}\n\n    /**\n     * @dev get collateral sponsor address\n     * @param contractAddr The address of the sponsored contract\n     */\n    function getSponsorForCollateral(address contractAddr)\n        public\n        view\n        returns (address)\n    {}\n\n    /**\n     * @dev get current Sponsored Balance for collateral\n     * @param contractAddr The address of the sponsored contract\n     */\n    function getSponsoredBalanceForCollateral(address contractAddr)\n        public\n        view\n        returns (uint256)\n    {}\n\n    /**\n     * @dev check if a user is in a contract's whitelist\n     * @param contractAddr The address of the sponsored contract\n     * @param user The address of contract user\n     */\n    function isWhitelisted(address contractAddr, address user)\n        public\n        view\n        returns (bool)\n    {}\n\n    /**\n     * @dev check if all users are in a contract's whitelist\n     * @param contractAddr The address of the sponsored contract\n     */\n    function isAllWhitelisted(address contractAddr)\n        public\n        view\n        returns (bool)\n    {}\n\n    /*** for contract admin only **/\n    /**\n     * @dev contract admin add user to whitelist\n     * @param contractAddr The address of the sponsored contract\n     * @param addresses The user address array\n     */\n    function addPrivilegeByAdmin(\n        address contractAddr,\n        address[] memory addresses\n    ) public {}\n\n    /**\n     * @dev contract admin remove user from whitelist\n     * @param contractAddr The address of the sponsored contract\n     * @param addresses The user address array\n     */\n    function removePrivilegeByAdmin(\n        address contractAddr,\n        address[] memory addresses\n    ) public {}\n\n    // ------------------------------------------------------------------------\n    // Someone will sponsor the gas cost for contract `contractAddr` with an\n    // `upper_bound` for a single transaction.\n    // ------------------------------------------------------------------------\n    function setSponsorForGas(address contractAddr, uint256 upperBound)\n        public\n        payable\n    {}\n\n    // ------------------------------------------------------------------------\n    // Someone will sponsor the storage collateral for contract `contractAddr`.\n    // ------------------------------------------------------------------------\n    function setSponsorForCollateral(address contractAddr) public payable {}\n\n    // ------------------------------------------------------------------------\n    // Add commission privilege for address `user` to some contract.\n    // ------------------------------------------------------------------------\n    function addPrivilege(address[] memory) public {}\n\n    // ------------------------------------------------------------------------\n    // Remove commission privilege for address `user` from some contract.\n    // ------------------------------------------------------------------------\n    function removePrivilege(address[] memory) public {}\n}\n",
  "sourcePath": "/Users/wangfan/Project/custodian/contracts/core/SponsorWhitelistControl.sol",
  "compiler": {
    "name": "solc",
    "version": "0.5.11+commit.c082d0b4.Emscripten.clang"
  },
  "schemaVersion": "3.0.23",
  "updatedAt": "2020-10-28T06:14:03.627Z",
  "devdoc": {
    "methods": {
      "addPrivilegeByAdmin(address,address[])": {
        "details": "contract admin add user to whitelist",
        "params": {
          "addresses": "The user address array",
          "contractAddr": "The address of the sponsored contract"
        }
      },
      "getSponsorForCollateral(address)": {
        "details": "get collateral sponsor address",
        "params": {
          "contractAddr": "The address of the sponsored contract"
        }
      },
      "getSponsorForGas(address)": {
        "details": "get gas sponsor address of specific contract",
        "params": {
          "contractAddr": "The address of the sponsored contract"
        }
      },
      "getSponsoredBalanceForCollateral(address)": {
        "details": "get current Sponsored Balance for collateral",
        "params": {
          "contractAddr": "The address of the sponsored contract"
        }
      },
      "getSponsoredBalanceForGas(address)": {
        "details": "get current Sponsored Balance for gas",
        "params": {
          "contractAddr": "The address of the sponsored contract"
        }
      },
      "getSponsoredGasFeeUpperBound(address)": {
        "details": "get current Sponsored Gas fee upper bound",
        "params": {
          "contractAddr": "The address of the sponsored contract"
        }
      },
      "isAllWhitelisted(address)": {
        "details": "check if all users are in a contract's whitelist",
        "params": {
          "contractAddr": "The address of the sponsored contract"
        }
      },
      "isWhitelisted(address,address)": {
        "details": "check if a user is in a contract's whitelist",
        "params": {
          "contractAddr": "The address of the sponsored contract",
          "user": "The address of contract user"
        }
      },
      "removePrivilegeByAdmin(address,address[])": {
        "details": "contract admin remove user from whitelist",
        "params": {
          "addresses": "The user address array",
          "contractAddr": "The address of the sponsored contract"
        }
      }
    }
  },
  "userdoc": {
    "methods": {}
  }
}